{
  "contractName": "Choice",
  "abi": [
    {
      "constant": true,
      "inputs": [
        {
          "name": "",
          "type": "uint256"
        }
      ],
      "name": "students",
      "outputs": [
        {
          "name": "",
          "type": "address"
        }
      ],
      "payable": false,
      "stateMutability": "view",
      "type": "function"
    },
    {
      "constant": false,
      "inputs": [
        {
          "name": "teacherId",
          "type": "uint256"
        }
      ],
      "name": "choose",
      "outputs": [
        {
          "name": "",
          "type": "uint256"
        }
      ],
      "payable": false,
      "stateMutability": "nonpayable",
      "type": "function"
    },
    {
      "constant": false,
      "inputs": [],
      "name": "getStudents",
      "outputs": [
        {
          "name": "",
          "type": "address[16]"
        }
      ],
      "payable": false,
      "stateMutability": "nonpayable",
      "type": "function"
    }
  ],
  "bytecode": "0x6060604052341561000f57600080fd5b6102dd8061001e6000396000f300606060405260043610610057576000357c0100000000000000000000000000000000000000000000000000000000900463ffffffff16806306ead22e1461005c5780630bb0b13a146100bf578063f1d064b3146100f6575b600080fd5b341561006757600080fd5b61007d6004808035906020019091905050610147565b604051808273ffffffffffffffffffffffffffffffffffffffff1673ffffffffffffffffffffffffffffffffffffffff16815260200191505060405180910390f35b34156100ca57600080fd5b6100e0600480803590602001909190505061017c565b6040518082815260200191505060405180910390f35b341561010157600080fd5b6101096101f1565b6040518082601060200280838360005b83811015610134578082015181840152602081019050610119565b5050505090500191505060405180910390f35b60008160108110151561015657fe5b016000915054906101000a900473ffffffffffffffffffffffffffffffffffffffff1681565b600080821015801561018f5750600f8211155b151561019a57600080fd5b336000836010811015156101aa57fe5b0160006101000a81548173ffffffffffffffffffffffffffffffffffffffff021916908373ffffffffffffffffffffffffffffffffffffffff160217905550819050919050565b6101f9610272565b6000601080602002604051908101604052809291908260108015610268576020028201915b8160009054906101000a900473ffffffffffffffffffffffffffffffffffffffff1673ffffffffffffffffffffffffffffffffffffffff168152602001906001019080831161021e575b5050505050905090565b610200604051908101604052806010905b600073ffffffffffffffffffffffffffffffffffffffff1681526020019060019003908161028357905050905600a165627a7a723058202b33748c3b0b6d8177c4d27aed00cf6fc22dee5fc7e44aeedb47909f6d8c6c700029",
  "source": "pragma solidity ^0.4.4;\n contract Choice {\n   address[16] public students;\n\n   function choose(uint teacherId) public returns(uint) {\n     require(teacherId >= 0 && teacherId <= 15);\n\n     students[teacherId] = msg.sender;\n     return teacherId;\n    }\n\n   function getStudents() public returns (address[16]) {\n     return students;\n    }\n }\n",
  "sourcePath": "/Users/Mitsumasa/private-tutor/contracts/Choice.sol",
  "compiler": {
    "name": "solc",
    "version": "0.4.18+commit.9cf6e910.Emscripten.clang"
  },
  "schemaVersion": "1.0.1",
  "updatedAt": "2018-01-21T14:55:09.785Z"
}